:020000040800F2
:10000000C80E002009500008F94E0008FB4E0008F9
:10001000FD4E0008FF4E0008014F000800000000E0
:10002000000000000000000000000000034F000876
:10003000054F000800000000074F0008094F0008A6
:100040004150000845500008495000084D50000834
:100050005150000855500008595000085D500008E4
:100060006150000865500008695000086D50000894
:100070007150000875500008795000087D50000844
:100080008150000885500008895000088D500008F4
:10009000114F000891500008955000089950000831
:1000A0009D500008A1500008A5500008A950000864
:1000B000AD500008B1500008B5500008B950000814
:1000C000BD500008C1500008C5500008C9500008C4
:1000D000CD500008D1500008D5500008D950000874
:1000E000DD500008E1500008E5500008E950000824
:1000F000ED500008F1500008F5500008F9500008D4
:10010000FD500008015100082511000805510008A4
:10011000095100080D51000811510008155100083F
:10012000195100081D5100082151000825510008EF
:1001300010B440B24109DFF8BC29012310F01F04BC
:10014000A34042F8213010BC704740B2002809D5C6
:1001500040B210F00F02DFF8A039D2180B0102F8FC
:10016000043C04E040B2DFF894290B01835470474B
:10017000010000220020C9B24B005B1E1A00D2B25F
:10018000DFF87C39D3185B781800D2B2DFF8703909
:10019000D35C53EA002000B2704780B5DFF86409F1
:1001A0000078002800F0DB81DFF858090021017099
:1001B000DFF854090068000400F1D181DFF840093C
:1001C000807FC00708D5DFF844094FF480510160F3
:1001D000DFF83C0900210180DFF82409807F8007D7
:1001E00007D5DFF8300901210160DFF8240900217B
:1001F0004180DFF80C09807F400707D5DFF814093C
:1002000002210160DFF8080900218180DFF8F00891
:10021000807F000707D5DFF8FC0804210160DFF8C4
:10022000F0080021C180DFF8D808807FC00607D51C
:10023000DFF8E00808210160DFF8D408002101811F
:10024000DFF8BC08807F800607D5DFF8C8081021DA
:100250000160DFF8BC0800214181DFF8A408807F3D
:10026000400607D5DFF8AC0820210160DFF8A008C0
:1002700000218181DFF88808807F000607D5DFF83C
:10028000940840210160DFF888080021C181DFF86F
:100290007008C07FC00707D5DFF8780880210160AB
:1002A000DFF86C0800210182DFF85408C07F800766
:1002B00007D5DFF8640810210160DFF85408002139
:1002C0004182DFF83C08C07F400707D5DFF84808C7
:1002D00020210160DFF8380800218182DFF8200842
:1002E000C07F800607D5DFF8340801210160DFF800
:1002F000200800210183DFF80808C07F400607D5E9
:10030000DFF8180802210160DFF8040800214183AA
:10031000DFF8EC07C07F000607D5DFF800080421EE
:100320000160DFF8EC0700218183DFF8D40790F843
:100330002000C00707D5DFF8E40708210160DFF8D7
:10034000D0070021C183DFF8B80790F820008007AC
:1003500007D5DFF8C80710210160DFF8B4070021D6
:100360000184DFF89C0790F82000400707D5DFF8EC
:10037000AC0720210160DFF8980700214184DFF8F5
:10038000800790F82000000704D5DFF8900740218F
:10039000016004E0DFF884075FF480010160DFF8AA
:1003A000600790F82000C00604D5DFF8600701213F
:1003B000016004E0DFF854075FF480310160DFF88A
:1003C000400790F82000800604D5DFF8400702219E
:1003D000016004E0DFF834075FF400310160DFF80A
:1003E000200790F82000400608D5DFF820070421F8
:1003F0000160DFF82C07FF21018008E0DFF80C071F
:100400005FF480210160DFF8180700210180DFF828
:10041000F00690F82000000604D5DFF8F006082169
:10042000016004E0DFF8E4065FF400210160DFF81A
:10043000D00690F82100C00705D5DFF8D8064FF4A4
:100440000051016004E0DFF8CC065FF0005101606C
:10045000DFF8AC0690F82100800705D5DFF8B40678
:100460004FF48041016004E0DFF8A8065FF08041AE
:100470000160DFF88C0690F82100400705D5DFF811
:1004800094064FF40041016004E0DFF888065FF055
:1004900000410160DFF8680690F82100000704D5EC
:1004A000DFF868064021016004E0DFF860065FF4D1
:1004B00080010160DFF8480690F82100C00604D5ED
:1004C000DFF848068021016004E0DFF840065FF4B1
:1004D00000010160DFF8280690F82100800605D5AC
:1004E000DFF828064FF48071016004E0DFF81C0695
:1004F0005FF080710160DFF8080690F82100400687
:1005000005D5DFF808064FF40071016004E0DFF85C
:10051000FC055FF000710160DFF8E40590F8210050
:10052000000605D5DFF8F40B4FF48071016004E09C
:10053000DFF8E80B5FF0807101600520FFF718FE1F
:10054000DFF8DC1B08601820FFF712FEDFF8001C44
:1005500008600E20FFF70CFEDFF8F81B088000F0A3
:1005600001F801BD80B5DFF8F00B01210170DFF863
:10057000E80B00218177DFF8E00B0021C177DFF87D
:10058000D80B002180F82010DFF8CC0B002180F878
:100590002110DFF8C80B0068C00707D5DFF8B80BDB
:1005A000807F50F00100DFF8B01B8877DFF8B00BD8
:1005B0000068800607D5DFF8A00B807F50F00200AE
:1005C000DFF8941B8877DFF89C0B0068C00707D51D
:1005D000DFF8840B807F50F00400DFF87C1B887705
:1005E000DFF8800B0068800707D5DFF86C0B807F91
:1005F00050F00800DFF8601B8877DFF80C05006812
:10060000000607D5DFF8500B807F50F01000DFF8B0
:10061000481B8877DFF8F0040068C00507D5DFF8CD
:10062000380B807F50F02000DFF82C1B8877DFF834
:10063000D8040068800507D5DFF81C0B807F50F0D8
:100640004000DFF8141B8877DFF8BC040068400521
:1006500007D5DFF8040B807F50F08000DFF8F81A30
:100660008877DFF8A4040068000507D5DFF8E80AFA
:10067000C07F50F00100DFF8E01AC877DFF8880487
:100680000068C00407D5DFF8D00AC07F50F0020030
:10069000DFF8C41AC877DFF870040068800407D553
:1006A000DFF8B40AC07F50F00400DFF8AC1AC87756
:1006B000DFF854040068400407D5DFF89C0AC07FC7
:1006C00050F00800DFF8901AC877DFF83C040068A3
:1006D000000407D5DFF8800AC07F50F01000DFF873
:1006E000781AC877DFF87C0A0068400507D5DFF87C
:1006F000680AC07F50F02000DFF85C1AC877DFF886
:10070000640A0068000507D5DFF84C0AC07F50F086
:100710004000DFF8441AC877DFF8480A0068C004D0
:1007200007D5DFF8340AC07F50F08000DFF8281AC0
:10073000C877DFF8300A0068800409D5DFF8180AA6
:1007400090F8200050F00100DFF80C1A81F820002A
:10075000DFF8100A0068400409D5DFF8FC0990F8BA
:10076000200050F00200DFF8F01981F82000DFF8D7
:10077000F4090068000409D5DFF8DC0990F82000CE
:1007800050F00400DFF8D01981F82000DFF8D80914
:100790000068C00509D5DFF8C00990F8200050F0C6
:1007A0000800DFF8B41981F82000DFF8BC09006800
:1007B000800509D5DFF8A00990F8200050F010005E
:1007C000DFF8941981F82000DFF89C0900684005E3
:1007D00009D5DFF8840990F8200050F02000DFF8F8
:1007E000781981F82000DFF880090068000509D534
:1007F000DFF8640990F8200050F04000DFF8581945
:1008000081F82000DFF860090068C00409D5DFF82E
:10081000480990F8200050F08000DFF83C1981F87A
:1008200020004121DFF8300900F0DEFC01BD7047F7
:10083000BB48B0F90000002807D0DFF820090068A5
:10084000C00702D5B14804210160DFF8140900682F
:10085000800603D4AD485FF480210160AA48006897
:10086000000440F13081A9485FF080510160A84840
:1008700001210180A248807F90F00100A049887783
:10088000A4485FF480310160A148012141809C4867
:10089000807F90F002009A4988779E485FF400318B
:1008A00001609B48012181809548807F90F0040081
:1008B0009349887797485FF480210160944801212B
:1008C000C1808F48807F90F008008D4988779148DB
:1008D0005FF4002101608E48012101818848807FFA
:1008E00090F01000864988778A485FF48011016093
:1008F0008748012141818248807F90F02000804913
:10090000887784485FF4001101608148012181816A
:100910007B48807F90F04000794988777D485FF47C
:10092000800101607A480121C1817548807F90F083
:1009300080007349887777485FF40001016074484C
:10094000012101826E48C07F90F001006C49C87798
:1009500071485FF4801101606D480121418268484F
:10096000C07F90F002006649C8776B485FF40011C1
:1009700001606748012181826148C07F90F00400D6
:100980005F49C87765485FF48031016060480121A4
:1009900001835B48C07F90F020005949C8775F48C9
:1009A0005FF4003101605A48012141835448C07FFF
:1009B00090F040005249C87758485FF480210160A8
:1009C0005348012181834E48C07F90F080004C49FC
:1009D000C87752485FF4002101604D480121C1836E
:1009E000474890F8200090F00100454981F8200028
:1009F0004A485FF480110160454801210184404864
:100A000090F8200090F002003D4981F82000434812
:100A10005FF4001101603E4801214184384890F89C
:100A2000200090F00400364981F820003B485FF434
:100A30008011016039485FF40011016037485FF4AC
:100A40008001016031485FF4803101602F485FF41C
:100A5000003101602D485FF4802101602B485FF474
:100A6000002101602B485FF00051016029485FF0D0
:100A70008041016027485FF00041016023485FF436
:100A800080010160DFF8E4060078002809D1DFF872
:100A9000DC06012101701D48802101601C480021F5
:100AA00001841A485FF08071016018484FF40071AA
:100AB0000160DFF868064FF480710160DFF86006BE
:100AC0000021016015E0DFF8A4060078012810D1AC
:100AD000DFF89806002101700C485FF0007101609A
:100AE0000A485FF080710160DFF830064FF48071D2
:100AF0000160704700E100E018ED00E000E400E074
:100B0000CC090020C60A002008180140101001403E
:100B1000940A002010140140100C014010180140EC
:100B2000C20A002080B5DFF82C06B0F90000B0F54D
:100B3000FA6F03DDDFF81C0602210180DFF83006C2
:100B40000068C00422D5DFF82C060088401CDFF8BE
:100B500024160880DFF8FC05B0F90000DFF8141651
:100B6000B1F90010884215DADFF80C065FF0805109
:100B70000160DFF8000601210180DFF80006807FB8
:100B800090F00100DFF8F415887703E0DFF8E40562
:100B900000210180DFF8E8050068C00722D5DFF8F2
:100BA000D4054088401CDFF8CC154880DFF8A40548
:100BB000B0F90000DFF8BC15B1F90210884215DA6F
:100BC000DFF8C0055FF480310160DFF8A80501217E
:100BD0004180DFF8A805807F90F00200DFF89C15C7
:100BE000887703E0DFF88C0500214180DFF890056D
:100BF0000068800722D5DFF87C058088401CDFF87C
:100C000074158880DFF84C05B0F90000DFF8641532
:100C1000B1F90410884215DADFF868055FF4003195
:100C20000160DFF8500501218180DFF85005807FE9
:100C300090F00400DFF84415887703E0DFF834050E
:100C400000218180DFF838050068400722D5DFF8F1
:100C50002405C088401CDFF81C15C880DFF8F404A8
:100C6000B0F90000DFF80C15B1F90610884215DA6A
:100C7000DFF810055FF480210160DFF8F80401213E
:100C8000C180DFF8F804807F90F00800DFF8EC14F2
:100C9000887703E0DFF8DC040021C180DFF8E0049E
:100CA0000068000722D5DFF8CC040089401CDFF87B
:100CB000C4140881DFF89C04B0F90000DFF8B41414
:100CC000B1F90810884215DADFF8B8045FF40021A2
:100CD0000160DFF8A00401210181DFF8A004807F1A
:100CE00090F01000DFF89414887703E0DFF88404B4
:100CF00000210181DFF888040068C00622D5DFF8F2
:100D000074044089401CDFF86C144881DFF8440407
:100D1000B0F90000DFF85C14B1F90A10884215DA66
:100D2000DFF860045FF480110160DFF848040121FE
:100D30004181DFF84804807F90F02000DFF83C1408
:100D4000887703E0DFF82C0400214181DFF83004CC
:100D50000068800622D5DFF81C048089401CDFF87B
:100D600014148881DFF8EC03B0F90000DFF80414F4
:100D7000B1F90C10884215DADFF808045FF40011AD
:100D80000160DFF8F00301218181DFF8F003807F4B
:100D900090F04000DFF8E413887703E0DFF8D40335
:100DA00000218181DFF8D8030068400622D5DFF8F2
:100DB000C403C089401CDFF8BC13C881DFF894036A
:100DC000B0F90000DFF8AC13B1F90E10884215DA63
:100DD000DFF8B0035FF480010160DFF898030121C0
:100DE000C181DFF89803807F90F08000DFF88C13DA
:100DF000887703E0DFF87C030021C181DFF88003FE
:100E00000068000622D5DFF86C03008A401CDFF87A
:100E100064130882DFF83C03B0F90000DFF85413D4
:100E2000B1F91010884215DADFF858035FF40001B9
:100E30000160DFF8400301210182DFF84003C07F39
:100E400090F00100DFF83413C87703E0DFF82403E3
:100E500000210182DFF830030068C0061ED5DFF8EC
:100E60001403408A401CDFF80C134882B948B0F9DB
:100E70000000DFF80013B1F91210884211DADFF830
:100E80000C035FF480110160BA4801214182BB4824
:100E9000C07F90F00200B949C87702E0B548002150
:100EA0004182B948006880061AD5B248808A401C41
:100EB000B0498882A748B0F90000AE49B1F91410D2
:100EC000884210DAB1485FF400110160A94801219D
:100ED0008182AA48C07F90F00400A849C87702E048
:100EE000A44800218182AA480068C0071AD5A148F9
:100EF000008B401C9F4908839648B0F900009D492B
:100F0000B1F91810884210DAA2485FF4803101600C
:100F10009848012101839948C07F90F020009749AB
:100F2000C87702E093480021018399480068800750
:100F30001AD59048408B401C8E4948838548B0F9AB
:100F400000008C49B1F91A10884210DA91485FF418
:100F5000003101608748012141838848C07F90F0BB
:100F600040008649C87702E08248002141838848D2
:100F7000006840071AD57F48808B401C7D498883D4
:100F80007448B0F900007B49B1F91C10884210DAAE
:100F900080485FF480210160764801218183774891
:100FA000C07F90F080007549C87702E07148002149
:100FB00081837748006800071CD56E48C08B401CB1
:100FC0006C49C8836348B0F900006A49B1F91E1042
:100FD000884212DA6F485FF4002101606548012100
:100FE000C183664890F8200090F00100634981F8C1
:100FF000200002E05F480021C18365480068C00608
:101000001CD55C48008C401C5A4908845148B0F9F2
:1010100000005849B1F92010884212DA5D485FF4A7
:1010200080110160534801210184544890F8200048
:1010300090F00200514981F8200002E04D48002163
:1010400001845348006880061CD54A48408C401CE7
:10105000484948843F48B0F900004649B1F9221098
:10106000884212DA4B485FF40011016041480121C7
:101070004184424890F8200090F004003F4981F8F4
:10108000200002E03B480021418439480068000606
:1010900019D53848808C401C364988843548B0F9C9
:1010A0002400C92812DB34485FF400010160314894
:1010B00001218184314890F8210090F010002F49DF
:1010C00081F8210002E02B4800218184FFF7B0FB6A
:1010D00001BD80B53048006850F008002E49086016
:1010E00006213220FFF731F83220FFF721F82B4894
:1010F0004FF4616101602A48006850F001002849FE
:10110000086028480B21016027480021016027481A
:10111000006850F001002549086001BD1008014039
:101120004008004080B521480068400840001F4941
:101130000860FFF7F7FC1E480068400840001C49A3
:1011400008601A48006850F001001849086001BDA5
:1011500028080040C00A0020100A002008080140AA
:1011600008100140080C014008140140C40A002086
:101170000C100140940A002010100140CC090020FE
:101180000C140140101401400C0C0140100C0140E3
:101190000C180140101801401C100240280C00409F
:1011A0000C0C00402C0C0040240C0040000C0040B3
:1011B000100C0040002070470020704730B402003F
:1011C0000F48D0F818320020C0B2412809DAC0B266
:1011D000C45CC0B20B4D44550B4C01252570401C1E
:1011E000F2E7002030BC704738B504000D002A003B
:1011F00092B22100024800F0D5F840B232BD0000A2
:101200004C050020CC090020C60A0020F8B50400D7
:101210000D000026402303228121200000F00DFA5A
:10122000402303220121200000F007FA582000F09B
:101230004CFBC4F81802D4F81802002802D101208F
:1012400006000FE0D4F818020700002087F85400C9
:10125000D4F81C024068804741233A000121200055
:1012600000F000FB3000C0B2F2BD38B504000D0044
:101270008121200000F015FA0121200000F011FA70
:10128000D4F8180200280AD0D4F81C0280688047DD
:10129000D4F8180200F028FB0020C4F8180200203F
:1012A00032BD2DE9F04104000D0000260027D4F8DE
:1012B0001882287810F06000C0B2002837D02028AB
:1012C0006DD16878022819D0032809D009281CD0CC
:1012D0000A280CD00B2823D1A878C8F8440025E0B0
:1012E000012218F14401200000F000FB1EE0688894
:1012F00080B2000AC0B2C8F8480017E0012218F115
:101300004801200000F0F2FA10E00120C8F8500077
:10131000EA88D2B292B24146200000F008FB05E014
:101320002900200000F038FE022039E037E068781C
:10133000062804D00A2828D00B282DD02FE0688852
:1013400080B2000A80B222280AD1E8881D2801DB79
:101350001C2600E0EE88D4F81C02006807000DE0AF
:10136000688880B2000A80B2212807D1354807007A
:10137000E8880A2801DB092600E0EE88320092B2F4
:101380003900200000F0B2FA09E0012218F14C0106
:10139000200000F0ABFA02E0A878C8F84C0000206A
:1013A000BDE8F081F8B504000D001600D4F81872FD
:1013B00094F8FC0103280DD197F85400002809D1B6
:1013C000012087F8540033009BB22A0081212000BD
:1013D00000F015FA0020F2BD0100292008801A480B
:1013E00070470200D2F81802002380F85430002021
:1013F000704770B504000D00D4F818627178307829
:10140000D4F81C22D26890474123320001212000E9
:1014100000F028FA002070BD38B50400D4F8185246
:10142000286D012807D169782878D4F81C22D26861
:10143000904700202865002032BD01000A20088066
:1014400002487047C40000203C000020D00000206B
:1014500002000220002903D0C2F81C120023180049
:10146000C0B2704738B504002068DFF868148842BD
:1014700016D1DFF86404006850F40000DFF8581457
:101480000860DFF85404006810F400000090009D2C
:1014900000220021142000F03DFE142000F04DFE3B
:1014A00031BD10B5040004F22C41D4F85C0400F006
:1014B000B6FE10BD38B504000D00EDB214EB4510BA
:1014C000D0F83C222900C9B2D4F85C0400F0DCFE5C
:1014D00031BD38B504000D00EDB214EB4510C26B00
:1014E0002900C9B2D4F85C0400F015FF31BD10B575
:1014F0000400D4F85C0400F0B7FF10BD38B5040058
:101500000125A068022802D10120050001E0012088
:1015100005002900C9B2D4F85C0400F090FFD4F8AB
:101520005C0400F069FF31BD10B50400D4F85C0420
:1015300000F089FFA069002807D0DFF8A003006849
:1015400050F00600DFF89413086010BD10B50400D9
:10155000D4F85C0400F081FF10BD10B50400DFF882
:101560008003C0F85C44DFF87803C4F82002DFF899
:101570007003DFF860130160DFF864030821416045
:10158000DFF85C0302218160DFF854030321C160AE
:10159000DFF84C0300218161DFF844030021C161C1
:1015A000DFF83C0300210162DFF8340300F06EFF36
:1015B000002801D001F0D8FD182300220021D4F822
:1015C000200201F0D2FD582300228021D4F820020D
:1015D00001F0CBFD982300228121D4F8200201F0F4
:1015E000C4FDD82300220121D4F8200201F0BDFD62
:1015F000002010BD70B5040000250026D4F820029C
:1016000000F0C9FF0500EDB2002D05D0022D09D074
:1016100005D3032D09D00BE0002006000AE00220CC
:10162000060007E00120060004E00220060001E0B9
:10163000022006003000C0B270BD2DE9F84304005E
:101640000D0016001F005FF000085FF00009330076
:10165000DBB23A0092B22900C9B2D4F8200201F0FC
:1016600070F880465FFA88F8B8F1000F07D0B8F13B
:10167000020F0AD006D3B8F1030F09D00BE0002007
:1016800081460AE00220814607E00120814604E00D
:101690000220814601E0022081464846C0B2BDE8F2
:1016A000F283F8B504000D00002600272900C9B216
:1016B000D4F8200201F083F80600F6B2002E05D01F
:1016C000022E09D005D3032E09D00BE0002007001D
:1016D0000AE00220070007E00120070004E00220E2
:1016E000070001E0022007003800C0B2F2BDF8B5E3
:1016F00004000D00002600272900C9B2D4F82002FA
:1017000001F0E5F80600F6B2002E05D0022E09D051
:1017100005D3032E09D00BE0002007000AE00220C9
:10172000070007E00120070004E00220070001E0B5
:10173000022007003800C0B2F2BDF8B504000D0069
:10174000002600272900C9B2D4F8200201F0F9F8D8
:101750000600F6B2002E05D0022E09D005D3032EC6
:1017600009D00BE0002007000AE00220070007E094
:101770000120070004E00220070001E0022007002A
:101780003800C0B2F2BD0200D2F82002C9B20B0686
:1017900007D5C9B211F07F0110EB411090F82A0073
:1017A00006E0C9B211F07F0110EB411090F82A0257
:1017B0007047F8B504000D00002600272900C9B2C3
:1017C000D4F8200200F0A5FF0600F6B2002E05D0E6
:1017D000022E09D005D3032E09D00BE0002007000C
:1017E0000AE00220070007E00120070004E00220D1
:1017F000070001E0022007003800C0B2F2BD2DE969
:10180000F84304000D0016001F005FF000085FF0B1
:101810000009BFB23B0032002900C9B2D4F820024F
:1018200001F029F880465FFA88F8B8F1000F07D078
:10183000B8F1020F0AD006D3B8F1030F09D00BE0BC
:10184000002081460AE00220814607E0012081460F
:1018500004E00220814601E0022081464846C0B2F1
:10186000BDE8F2832DE9F84304000D0016001F00C7
:101870005FF000085FF00009BFB23B0032002900B2
:10188000C9B2D4F8200200F0C9FF80465FFA88F898
:10189000B8F1000F07D0B8F1020F0AD006D3B8F1A3
:1018A000030F09D00BE0002081460AE002208146A8
:1018B00007E00120814604E00220814601E0022089
:1018C00081464846C0B2BDE8F28301000548704732
:1018D00000000000005C00401C10024010ED00E021
:1018E000EC000020700900207047704770B50400BC
:1018F0000D0016000220C4F8F401B6B2A661B6B21B
:10190000E66133009BB22A0000212000FFF777FF39
:10191000002070BD70B504000D00160033009BB2AE
:101920002A0000212000FFF76AFF002070BD70B57B
:1019300004000D0016000320C4F8F401B6B2C4F888
:101940000861B6B2C4F80C6133009BB22A000021D2
:101950002000FFF787FF002070BD70B504000D0068
:10196000160033009BB22A0000212000FFF77AFF07
:10197000002070BD10B504000420C4F8F401002359
:10198000002200212000FFF73AFF002010BD10B513
:1019900004000520C4F8F4010023002200212000E7
:1019A000FFF760FF002010BD70B504000D00002699
:1019B0006878002820D0012828D0032821D00528C5
:1019C0000BD0062804D0082811D009280AD022E01C
:1019D0002900200000F004F921E02900200000F097
:1019E000B3F91CE02900200000F0DEF917E029001F
:1019F000200000F049FA12E02900200000F06AFA05
:101A00000DE02900200000F083FA08E02900200002
:101A100000F091FA03E02900200000F0BDFA300048
:101A2000C0B270BD70B504000D00002694F8FC0132
:101A3000032817D1287902280FDA29002000D4F8CA
:101A4000142292689047E88800280AD1F6B2002E46
:101A500007D12000FFF78EFF03E02900200000F0EF
:101A60009BFA03E02900200000F096FA002070BDE8
:101A70002DE9F04104000D000027A8880600287811
:101A800010F06000202807D129002000D4F814228B
:101A9000926890470020A1E06878002861D0012872
:101AA00032D0032840F0988094F8FC01022802D03C
:101AB00003280CD023E0F6B2002E07D0F6B2802E19
:101AC00004D03100C9B22000FFF711FE1BE0688886
:101AD00000280AD1F6B2002E07D0F6B2802E04D02C
:101AE0003100C9B22000FFF702FE29002000D4F81F
:101AF0001422926890472000FFF73CFF03E0290082
:101B0000200000F049FA67E094F8FC01022802D0B6
:101B100003280CD020E0F6B2002E07D0F6B2802EBB
:101B200004D03100C9B22000FFF7E1FD18E0688859
:101B3000002810D17F2006420AD03100C9B220000F
:101B4000FFF7FBFD29002000D4F81422926890478B
:101B50002000FFF70FFF03E02900200000F01CFA2F
:101B60003AE094F8FC01022802D0032809D02EE0C4
:101B70007F20064204D03100C9B22000FFF7B7FD34
:101B800029E0F6B2300607D5F6B216F07F0014EB66
:101B9000001010F1140806E0F6B216F07F0014EB06
:101BA000001010F582783100C9B22000FFF7EBFD7C
:101BB000002803D00120C8F8000002E00020C8F887
:101BC0000000022241462000FFF790FE03E02900BA
:101BD000200000F0E1F9FFE73800C0B2BDE8F08175
:101BE00070B582B004000D00688880B2000AC0B2EF
:101BF000012808D002280ED0032821D0062865D05D
:101C0000072872D082E000A9207CD4F81022126844
:101C1000904706007FE0207C002808D100A8D4F877
:101C20001412896A884706000220707007E000A835
:101C3000D4F81412C96A88470600022070706AE05E
:101C4000A878002808D0022816D00DD3042823D065
:101C50001AD3052828D02FE000A9207CD4F8102220
:101C600052689047060030E000A9207CD4F810228A
:101C700092689047060028E000A9207CD4F8102242
:101C8000D2689047060020E000A9207CD4F81022FA
:101C900012699047060018E000A9207CD4F81022B1
:101CA00052699047060010E000A9207CD4F8102269
:101CB00092699047060008E000AA6988C9B220002E
:101CC000D4F814329B6B9847060024E0207C00284F
:101CD00006D100A8D4F81412496B884706001AE010
:101CE0002900200000F058F92DE0207C002808D1C0
:101CF00000A8D4F81412096B8847060007207070FA
:101D000009E02900200000F047F91CE0290020002C
:101D100000F042F917E0BDF80000002813D0E88871
:101D2000002810D0BDF80000E988884202D2BDF832
:101D3000000000E0E888ADF80000BDF800203100A8
:101D40002000FFF7D3FD73BD70B504000D00A88817
:101D5000002824D1E888002821D1A87810F07F003D
:101D6000060094F8FC01032804D12900200000F0AB
:101D700013F918E084F8FE613100C9B22000FFF7C2
:101D800018FD2000FFF7F6FDF6B2002E03D002206A
:101D900084F8FC0107E0012084F8FC0103E029003D
:101DA000200000F0F9F870BD38B504000D00688817
:101DB0003449087033480078022804DB29002000E9
:101DC00000F0EAF85CE094F8FC01022802D0032855
:101DD0001ED051E02B480078002815D02948007803
:101DE0006060032084F8FC0126480178200000F0A0
:101DF000F4F9022804D12900200000F0CDF83FE0DA
:101E00002000FFF7B7FD02E02000FFF7B3FD37E049
:101E10001C48007800280ED1022084F8FC011948E3
:101E20000078606017480178200000F0ECF920008D
:101E3000FFF7A0FD1FE0134800786168884217D0C3
:101E40006168C9B2200000F0DEF90E4800786060D9
:101E50000C480178200000F0C0F9022804D12900C4
:101E6000200000F099F80BE02000FFF783FD02E06E
:101E70002000FFF77FFD03E02900200000F08CF830
:101E800031BD0000C50A002038B504000D00E88807
:101E9000012804D02900200000F07EF819E094F811
:101EA000FC01022802D0032809D00EE00020A06027
:101EB000012214F108012000FFF718FD09E00122BA
:101EC000211D2000FFF712FD03E02900200000F093
:101ED00063F831BD38B504000D0094F8FC01801E94
:101EE000012810D80120E060D4F80402002803D0B3
:101EF000E06850F00200E060022214F10C012000C2
:101F0000FFF7F4FC03E02900200000F045F831BDA4
:101F100038B504000D00688801280BD10120C4F8F1
:101F2000040229002000D4F814229268904720006F
:101F3000FFF720FD31BD38B504000D0094F8FC0119
:101F4000801E01280FD8688801280BD10020C4F812
:101F5000040229002000D4F814229268904720003F
:101F6000FFF708FD03E02900200000F015F831BD5F
:101F70000A7802704A7842708A78CB7812EB032292
:101F800042800A794B7912EB032282808A79CB79DD
:101F900012EB0322C280704738B504000D00802187
:101FA0002000FFF7A4FB00212000FFF7A0FB31BDBC
:101FB000F8B504000D0016000027002C1AD02000F0
:101FC00000F019F84000801C3080FFB2308878554E
:101FD0007F1CFFB2032078557F1C2078002809D091
:101FE000FFB220787855641C7F1CFFB20020785522
:101FF0007F1CF2E7F1BD010000200A78002A02D020
:10200000401C491CF9E7C0B2704710B450F8041BDB
:1020100081B102681218001D50F8043BDC0744BF70
:10202000A9F10104E31852F8044B43F8044B091FCB
:10203000F9D1EBE710BC704710F00702454B1B6865
:1020400019004FF6FF031940434B53EA022319438B
:10205000404B196070473F480068C0F3022070474A
:1020600010B440B241093D4A012310F01F04A340BF
:1020700042F8213010BC704740B2002808D540B269
:1020800010F00F02364BD2180B0102F8043C03E0AB
:1020900040B2344A0B018354704770B4030013F00C
:1020A0000704D4F10706052E01D3042001E0D4F182
:1020B0000700261D072E01D2002500E0E51E01269F
:1020C00016FA00F0401E0840A8400121A940491E10
:1020D0001140084370BC704710B50400601EB0F199
:1020E000807F01D301200EE0601E1F4908600F2190
:1020F0005FF0FF30FFF7C0FF1C48002101601C4863
:1021000007210160002010BD10B504002000FFF77A
:1021100093FF10BDF8B504000D0016000027FFF76F
:102120009AFF0700320029003800FFF7B6FF0100D0
:10213000200040B2FFF7A0FFF1BD10B50400200061
:1021400040B2FFF78DFF10BD10B504002000FFF76F
:10215000C3FF10BD0CED00E00000FA0500E100E057
:1021600018ED00E000E400E014E000E018E000E01A
:1021700010E000E070B504000D001600002C01D145
:10218000022012E0D4F81402002802D00020C4F883
:102190001402002D01D0C4F81052012084F8FC0173
:1021A00026702000FFF7D9F9002070BD0200002042
:1021B000002904D0C2F814120023180001E0022301
:1021C0001800C0B2704710B504002000FFF712FAE3
:1021D000002010BD01000020704770B504000D0004
:1021E0000226D4F8140200280AD02900C9B220001F
:1021F000D4F8142212689047002801D1002006006C
:102200003000C0B270BD38B504000D002900C9B25D
:102210002000D4F8142252689047002032BD38B50F
:1022200004000D00290014F50270FFF7A1FE012043
:10223000C4F8F401B4F80E02C4F8F80194F80802E6
:1022400010F01F00C0B2002803D002280DD006D322
:1022500011E014F502712000FFF7A6FB12E014F55F
:1022600002712000FFF7DEFB0CE014F50271200084
:10227000FFF7FEFB06E094F8080210F08001200052
:10228000FFF735FA002032BDF8B504000D00160046
:10229000EDB2002D2DD114F582700700D4F8F401B1
:1022A000032836D1F868B968884210D2B868F9684E
:1022B000401AB860B868F968884201D2BA6800E08C
:1022C000FA6892B231002000FFF747FB21E0D4F812
:1022D00014020069002808D094F8FC01032804D1F6
:1022E0002000D4F81412096988472000FFF742FB48
:1022F0000FE0D4F81402806900280AD094F8FC0199
:10230000032806D12900C9B22000D4F8142292690A
:1023100090470020F2BDF8B504000D001600EDB2A4
:10232000002D57D114F114000700D4F8F40102284D
:1023300045D1F868B968884210D2B868F968401A7F
:10234000B860BA6892B231002000FFF7E3FA0023C8
:10235000002200212000FFF785FA30E07868F96854
:10236000B0FBF1F201FB1200002817D17868F96880
:10237000884213D37868D4F8F81188420ED200222C
:1023800000212000FFF7C6FA0020C4F8F80100235E
:10239000002200212000FFF765FA10E0D4F81402B3
:1023A000C068002808D094F8FC01032804D120005C
:1023B000D4F81412C96888472000FFF7E8FA94F8A7
:1023C0000002012816D12000FFF704FF002084F846
:1023D00000020FE0D4F81402406900280AD094F8F3
:1023E000FC01032806D12900C9B22000D4F8142228
:1023F000526990470020F2BD10B50400402300222E
:1024000000212000FFF719F94020C4F810014023F3
:10241000002280212000FFF710F9402020620120D7
:1024200084F8FC01D4F81802002806D06168C9B20B
:102430002000D4F8142252689047002010BD0200FA
:10244000117400207047010091F8FC0181F8FD0132
:10245000042081F8FC0100207047010091F8FD0183
:1024600081F8FC010020704710B5040094F8FC01CD
:10247000032809D1D4F81402C069002804D0200030
:10248000D4F81412C9698847002010BD30B585B052
:1024900005000024002D01D101207AE095F82904DF
:1024A000002805D1002085F828042800FEF7DAFF6F
:1024B000032085F82904286800F08BFE291D83B0CD
:1024C0006846202201F09CFB0EBC286800F070FEDC
:1024D0000021286800F089FE002004000F2C1ED285
:1024E00015EB4410012180F8291015EB441080F8F9
:1024F000284015EB4410848615EB4410002180F829
:102500002B1015EB44100021816315EB44100021C2
:10251000C16315EB441000210164641CDEE7002058
:1025200004000F2C21D215EB4410002180F8291251
:1025300015EB441080F8284215EB4410848615EB07
:102540004410002180F82B1215EB44100021C0F834
:10255000381215EB44100021C0F83C1215EB441062
:102560000021C0F84012641CDBE7291D83B06846D7
:10257000202201F045FB0EBC286800F039FE002047
:1025800085F82400012085F82904286801F0EEFA76
:10259000002005B030BD10B5040094F828040128CF
:1025A00001D1022010E0012084F82804012120003C
:1025B000FFF79BF9206801F0D6FA206800F0FDFDD6
:1025C000002084F82804002010BD10B50400206805
:1025D00001F0CFFA000402D5200000F0E4F92068F1
:1025E00001F0C7FA40050FD52068B0F844004FF657
:1025F000FF3108402168A1F844002000FEF77EFF6B
:102600000021200000F085F8206801F0B2FA4004B3
:1026100008D52068B0F844004BF6FF7108402168E7
:10262000A1F84400206801F0A4FA800408D52068CD
:10263000B0F844004DF6FF7108402168A1F844004D
:10264000206801F096FAC0041DD52068B0F840005B
:102650004FF6FB7108402168A1F840002068B0F8EF
:1026600040004FF6F77108402168A1F840002000B3
:10267000FEF76CFF2068B0F844004EF6FF7108408A
:102680002168A1F84400206801F073FA000520D504
:102690002068B0F8400050F008002168A1F8400020
:1026A0002068B0F844004FF2FF7108402168A1F89B
:1026B00044002068B0F8400050F004002168A1F800
:1026C0004000206801F055FAC00402D42000FEF753
:1026D0002BFF206801F04DFA80050BD52068B0F87B
:1026E00044004FF6FF5108402168A1F84400200043
:1026F000FEF7FDFE206801F03CFAC00508D5206811
:10270000B0F844004FF6FF6108402168A1F844008A
:1027100010BD38B504000D0094F82804012801D13B
:1027200002200DE0012084F8280484F824502900B8
:10273000C9B2206801F00EFA002084F828040020B5
:1027400032BD2DE9F84304000D0016001F005FF0B4
:1027500000085FF00009EDB2280607D5EDB215F0CC
:102760007F0014EB40102830814607E0EDB215F0F1
:102770007F0014EB401010F50A70814615F07F00C1
:1027800089F80000C5F3C01089F80100B6B2C9F895
:10279000106089F8037094F82804012801D1022000
:1027A0000BE0012084F828044946206800F036FD3B
:1027B000002084F828044046C0B2BDE8F28370B51A
:1027C00004000D000026EDB2280607D5EDB215F085
:1027D0007F0014EB40102830060007E0EDB215F042
:1027E0007F0014EB401010F50A70060015F07F0012
:1027F0003070C5F3C010707094F82804012801D11E
:1028000002200AE0012084F828043100206800F04A
:10281000AFFE002084F82804002070BD2DE9F041AF
:1028200004000D0016001F005FF00008EDB215F067
:102830007F0014EB401010F50A708046C8F8146051
:10284000C8F818700020C8F81C00002088F80100A3
:1028500015F07F0088F800007F20054204D1414632
:10286000206800F070FF03E04146206800F06BFF35
:102870000020BDE8F0812DE9F04104000D001600B4
:102880001F005FF00008EDB215F07F0014EB401060
:1028900028308046C8F81460C8F818700020C8F8BE
:1028A0001C00012088F8010015F07F0088F8000066
:1028B0007F20054204D14146206800F044FF03E038
:1028C0004146206800F03FFF0020BDE8F08170B570
:1028D00004000D000026EDB2280607D5EDB215F074
:1028E0007F0014EB40102830060005E0EDB214EB39
:1028F000451010F50A7006000120B07015F07F0039
:102900003070C5F3C010C0B210F00100707094F8C0
:102910002804012801D1022012E0012084F82804B3
:102920003100206801F086F87F20054204D104F2CE
:102930002C41206801F023F9002084F828040020AD
:1029400070BD70B504000D000026EDB2280607D555
:10295000EDB215F07F0014EB40102830060005E0C2
:10296000EDB214EB451010F50A7006000020B070AF
:1029700015F07F003070C5F3C010C0B210F0010038
:10298000707094F82804012801D102200AE0012087
:1029900084F828043100206801F08BF8002084F8C6
:1029A0002804002070BDF8B504000025002600278B
:1029B0000020ADF802000020ADF800002068B0F85B
:1029C0004400ADF80200000440F1FB81BDF80200B4
:1029D00010F00F000700FFB2002F40F0C280BDF8DA
:1029E0000200C00631D42068008848F60F71084004
:1029F0002168088014F1280005002068B0F8500014
:102A0000297810EBC100216811EB4000D0F80404D4
:102A10008005800DE861E8696969401868610021F6
:102A20002000FEF756FD94F824000028C6D0A869BF
:102A30000028C3D194F8240050F080002168A1F848
:102A40004C00002084F82400B8E714F50A70050053
:102A500020680088ADF80000BDF80000000520D512
:102A60002068B0F85000297810EBC100216811EB04
:102A70004000D0F80C048005800DE861EB699BB242
:102A8000AA8804F22C41206801F0A1F8206800888F
:102A900040F68F710840216808802000FEF701FD94
:102AA0008CE7BDF80000000488D52068008840F657
:102AB0008F710840216808802068B0F8500029789C
:102AC00010EBC100216811EB4000D0F80C04800528
:102AD000800DE861E86900280AD0EB699BB2AA88FA
:102AE0006969206801F073F8E869696940186861EC
:102AF00000212000FEF7DEFC2168B1F850102268AA
:102B000012EB410101F20C4108002A693F2A0DD362
:102B10002A69520911002A7C12F01F0F00D1491EA8
:102B2000890251F4004189B2016009E02A69520822
:102B300011002A7CD20700D5491C890289B20160A4
:102B4000216809884BF68F721140080090F480507C
:102B500090F40050216840F4004050F0800008805C
:102B60002CE7FFB2206830F82700ADF80000BDF870
:102B70000000000440F18D80FFB2206830F827008B
:102B800040F68F710840FFB2216821F82700FFB29C
:102B900014EB471010F50A700500A87A002818D128
:102BA0002068B0F85000297810EBC100216811EBC3
:102BB0004000D0F80C048005800D0600B6B2002E4F
:102BC0004DD033009BB2AA886969206800F0FFFFEE
:102BD00045E02878216831F82000400418D52068A5
:102BE000B0F85000297810EBC100216811EB4000CB
:102BF000D0F804048005800D0600B6B2002E1FD068
:102C000033009BB2EA886969206800F0E0FF17E0B2
:102C10002068B0F85000297810EBC100216811EB52
:102C20004000D0F80C048005800D0600B6B2002EDE
:102C300006D033009BB22A896969206800F0C7FF7B
:102C40002878216831F8200048F68F71084040F458
:102C5000004050F0C0002978226822F82100E8697D
:102C6000B6B23018E861B6B2686930186861A86910
:102C7000002803D0B6B22869864204D22978200001
:102C8000FEF718FC05E0AB696A6929782000FFF7B8
:102C9000C5FDBDF8000000067FF590AEFFB214EB55
:102CA000471028300500FFB2206830F8270048F6AA
:102CB0000F710840FFB2216821F82700A87A002888
:102CC00018D12068B0F85000297810EBC1002168B5
:102CD00011EB4000D0F804048005800DE861E8693C
:102CE00000284DD0EB699BB2AA886969206800F082
:102CF00049FF45E02878216831F82000400618D5C2
:102D00002068B0F85000297810EBC100216811EB61
:102D10004000D0F804048005800DE861E8690028CF
:102D20001FD0EB699BB2EA886969206800F02AFF2E
:102D300017E02068B0F85000297810EBC100216836
:102D400011EB4000D0F80C048005800DE861E869C3
:102D5000002806D0EB699BB22A896969206800F0D7
:102D600011FF2878216831F8200048F68F7108405B
:102D700040F4404050F080002978226822F8210079
:102D80002068B0F85000297810EBC100216811EBE1
:102D90004000D0F804048005800DE861E8696969A5
:102DA00040186861A869002804D129782000FEF73E
:102DB00090FB03E6AB696A6929782000FFF75BFDA9
:102DC000FCE50020F2BD50F8041B61B150F8042B63
:102DD000D30744BFA9F101039A18002342F8043B2A
:102DE000091FFAD1EFE7704780B500F035FF00F01A
:102DF00080F800F0C5F8FEF76CF900F007F800F075
:102E000071FFFDF7CAF9FDF712FDFAE700B589B0C9
:102E1000CB48D0E90023CDE9002302A81C2100F013
:102E20007BFFC848C8490160C64832214160C54897
:102E300000218160C348FF21C160C24800210161B7
:102E4000C04800218161BF4800F06AFF002801D01E
:102E500000F08AF9002000900020019000A9B948F4
:102E600001F02CF9002801D000F07EF960200290DA
:102E7000002003900020049000200690002202A968
:102E8000B04800F069FF002801D000F06DF904227D
:102E900002A9AC4800F060FF002801D000F064F9FE
:102EA000082202A9A74800F057FF002801D000F02F
:102EB0005BF90C2202A9A34800F04EFF002801D0C4
:102EC00000F052F99F4801F066F9A048006850F4FC
:102ED00080709E4908609D48006850F480509B496E
:102EE00008609948006850F001009749086009B0EF
:102EF00000BD00B595B005A8282100F00DFF00A881
:102F0000142100F009FF0FA8182100F005FF01208F
:102F100005905FF480300690002007900120099012
:102F200002200C905FF480300D905FF480100E90C2
:102F300005A801F087F9002801D000F015F90F204D
:102F4000009002200190002002904FF480600390D6
:102F500000200490012100A801F09FFB002801D06F
:102F600000F002F910200F905FF4800014900FA879
:102F700001F0DAFC002801D000F0F6F815B000BD31
:102F80002DE9F04186B001A8102100F0C5FE70487F
:102F9000006850F040006E4908606D48006810F00D
:102FA00040000090009C6A48006850F0100068499A
:102FB00008606748006810F010000090009D6448A9
:102FC000006850F00400624908606148006810F031
:102FD00004000090009E5E48006850F008005C49C4
:102FE00008605B48006810F008000090009F584897
:102FF000006850F02000564908605548006810F0FD
:1030000020000090DDF8008000227F21514801F06F
:1030100086FE002243F20F114F4801F080FE00228D
:1030200048F202014D4801F07AFE0022FF214C488F
:1030300001F075FE00224FF44E714A4801F06FFE18
:1030400048F202000190012002900020039002202B
:10305000049001A9414801F0F7FC4FF603400190AC
:10306000002002900020039001A93E4801F0ECFCF2
:103070004FF680700190002002900020039001A97B
:10308000344801F0E1FC4FF4F85001900020029028
:103090000020039001A9324801F0D6FC4EF2FF0057
:1030A000019001200290002003900220049001A9C9
:1030B0002B4801F0C9FC7F200190012002900020E4
:1030C00003900220049001A9224801F0BDFC4FF4B6
:1030D000987001900120029000200390022004903B
:1030E00001A9204801F0B0FC4FF48070019001204C
:1030F0000290002003900220049001A9174801F0DB
:10310000A3FC43F2CF3001900120029000200390F5
:103110000220049001A9104801F096FC4FF4407081
:10312000019001200290002003900220049001A948
:103130000C4801F089FC06B0BDE8F08100000000F9
:1031400030500008540A00200008004020080040C9
:103150001810024000180140001001400008014012
:1031600000140140000C0140704730B404000025F9
:1031700089B2080607D589B211F07F0014EB401020
:103180002830050005E089B214EB411010F50A70F3
:10319000050092B2002A03D10020A872AB8004E09F
:1031A0000120A872EB80180C2881002030BC7047E9
:1031B0000EB40100002003B07047010000224FF45C
:1031C0003F400200B1F840001043A1F84000002049
:1031D0007047010000224FF43D400200B1F840006A
:1031E0009043A1F840000020704702000020704783
:1031F0000EB418B504000120A4F840000020A4F883
:1032000040000020A4F844000020A4F85000200052
:10321000FFF7D3FF002012BC5DF810FB10B40200D2
:10322000C878002805D002280FD024D3032816D050
:103230002DE0087832F8200048F68F13184050F43B
:1032400000700B7822F8230021E0087832F8200083
:1032500048F68F1318400B7822F8230017E00878FF
:1032600032F8200048F68F13184050F4C0600B78F5
:1032700022F823000BE0087832F8200048F68F137C
:10328000184050F480600B7822F82300FFE708789C
:1032900032F8200048F68F7318400B78184340F43A
:1032A000004050F080000B7822F82300887A002834
:1032B00040F08E804878002831D0B2F850000B786A
:1032C00010EBC30012EB400010F580608B889BB2BE
:1032D0005B089BB25B000360087832F82000400670
:1032E0000CD5087832F8200048F68F73184040F467
:1032F000004050F0C0000B7822F823000B7832F821
:10330000233048F6BF742340180090F020000B785B
:1033100040F4004050F0800022F8230025E1B2F88C
:1033200050000B7810EBC30012EB400010F58160E9
:103330008B889BB25B089BB25B000360B2F8503095
:103340000C7813EBC40312EB430303F20C43180095
:103350000C693F2C0DD30C69640923000C7C14F01C
:103360001F0F00D15B1E9B0253F400439BB203600E
:1033700009E00C69640823000C7CE40700D55B1CA1
:103380009B029BB20360087832F8200040040CD501
:10339000087832F8200048F68F73184040F4404017
:1033A00050F080000B7822F823000B7832F823309D
:1033B0004BF68F742340180090F4805090F4005026
:1033C0000B7840F4004050F0800022F82300CCE05D
:1033D000087832F8200048F68F73184040F4014016
:1033E00050F080000B7822F82300B2F850000B78E0
:1033F00010EBC30012EB400010F58060CB889BB24D
:103400005B089BB25B000360B2F850000B7810EBD6
:10341000C30012EB400010F581600B899BB25B0882
:103420009BB25B0003604878002851D1087832F8DD
:10343000200040040CD5087832F8200048F68F733D
:10344000184040F4404050F080000B7822F82300F0
:10345000087832F8200040060CD5087832F82000B1
:1034600048F68F73184040F4004050F0C0000B78CD
:1034700022F82300087832F8200048F68F731840AD
:1034800040F4004050F0C0000B7822F823000B7885
:1034900032F823304BF68F742340180090F480509C
:1034A00090F400500B7840F4004050F0800022F877
:1034B00023000B7832F8233048F6BF7423401800FD
:1034C0000B7840F4004050F0800022F823004CE0DC
:1034D000087832F8200040040CD5087832F8200033
:1034E00048F68F73184040F4404050F080000B784D
:1034F00022F82300087832F8200040060CD508781E
:1035000032F8200048F68F73184040F4004050F025
:10351000C0000B7822F82300087832F8200048F623
:103520008F73184040F4404050F080000B7822F830
:1035300023000B7832F8233048F6BF74234018007C
:103540000B7840F4004050F0800022F823000B7804
:1035500032F823304BF68F74234018000B7840F478
:10356000004050F0800022F82300002010BC70477B
:1035700010B40200887A002844D14878002820D06E
:10358000087832F8200040060CD5087832F8200080
:1035900048F68F73184040F4004050F0C0000B789C
:1035A00022F823000B7832F8233048F6BF7423400A
:1035B00018000B7840F4004050F0800022F82300FF
:1035C000BEE0087832F8200040040CD5087832F8C4
:1035D000200048F68F73184040F4404050F08000BF
:1035E0000B7822F823000B7832F823304BF68F74D7
:1035F000234018000B7840F4004050F0800022F87F
:1036000023009DE0487800284DD1087832F820004A
:1036100040040CD5087832F8200048F68F73184023
:1036200040F4404050F080000B7822F823000878E6
:1036300032F8200040060CD5087832F8200048F611
:103640008F73184040F4004050F0C0000B7822F80F
:103650002300087832F8200048F68F73184040F4B1
:10366000004050F0C0000B7822F823000B7832F8AD
:1036700023304BF68F74234018000B7840F4004041
:1036800050F0800022F823000B7832F8233048F6FF
:10369000BF74234018000B7840F4004050F08000C5
:1036A00022F823004CE0087832F8200040040CD5C2
:1036B000087832F8200048F68F73184040F44040F4
:1036C00050F080000B7822F82300087832F82000B0
:1036D00040060CD5087832F8200048F68F73184061
:1036E00040F4004050F0C0000B7822F82300087826
:1036F00032F8200048F68F73184040F4404050F0F4
:1037000080000B7822F823000B7832F8233048F63B
:10371000BF74234018000B7840F4004050F0800044
:1037200022F823000B7832F823304BF68F742340B5
:1037300018000B7840F4004050F0800022F823007D
:10374000002010BC7047F8B504000D000026AF69DA
:103750006878012840F0C8802869A969884205D2A4
:1037600028690700A869C01BA86103E0A8690700D1
:103770000020A861A87A002810D13B009BB2AA883B
:103780006969200000F0FEF9B4F85000297810EBC8
:10379000C10014EB4000C0F8047492E0287834F8BB
:1037A0002000400632D56878002820D1B4F85010A7
:1037B0002A7811EBC20114EB410101F20C4108001F
:1037C0003F2F0BD37A09110017F01F0F00D1491EAC
:1037D000890251F4004189B2016014E07A081100B5
:1037E000FA0700D5491C890289B201600BE06878AC
:1037F000012808D1B4F85000297810EBC10014EB6F
:103800004000C0F804742889060031E06878002878
:1038100020D1B4F850102A7811EBC20114EB410109
:1038200001F2044108003F2F0BD37A09110017F071
:103830001F0F00D1491E890251F4004189B2016075
:1038400014E07A081100FA0700D5491C890289B2F0
:1038500001600BE06878012808D1B4F8500029789D
:1038600010EBC10014EB4000C0F80474E8880600B7
:103870003B009BB2320092B26969200000F082F9ED
:10388000687800280DD1287834F8200048F68F7128
:10389000084040F4004050F0C000297824F821008E
:1038A0000FE0687801280CD1287834F8200048F619
:1038B0008F71084040F4404050F08000297824F88F
:1038C0002100297834F8211048F6BF721140080011
:1038D00090F0100090F02000297840F4004050F063
:1038E000800024F82100A3E02869A969884205D254
:1038F00028690700A869C01BA86103E0A869070040
:103900000020A861A87A002820D1B4F850102A78A5
:1039100011EBC20114EB410101F20C4108003F2FF1
:103920000BD37A09110017F01F0F00D1491E89022D
:1039300051F4004189B2016068E07A081100FA0789
:1039400000D5491C890289B201605FE068780028CF
:1039500020D1B4F850102A7811EBC20114EB4101C8
:1039600001F2044108003F2F0BD37A09110017F030
:103970001F0F00D1491E890251F4004189B2016034
:1039800014E07A081100FA0700D5491C890289B2AF
:1039900001600BE06878012808D1B4F8500029785C
:1039A00010EBC10014EB4000C0F8047468780028E4
:1039B00020D1B4F850102A7811EBC20114EB410168
:1039C00001F20C4108003F2F0BD37A09110017F0C8
:1039D0001F0F00D1491E890251F4004189B20160D4
:1039E00014E07A081100FA0700D5491C890289B24F
:1039F00001600BE06878012808D1B4F850002978FC
:103A000010EBC10014EB4000C0F80474297834F8BE
:103A100021104BF68F721140080090F4805090F402
:103A20000050297840F4004050F0800024F8210034
:103A30000020F2BD10B402000878002812D10B78E3
:103A400032F823304BF6BF742340180090F48050B6
:103A500090F010000B7840F4004050F0800022F805
:103A6000230023E04878002810D00B7832F8233068
:103A700048F6BF742340180090F010000B7840F413
:103A8000004050F0800022F823000FE00B7832F85D
:103A900023304BF68F742340180090F480500B783D
:103AA00040F4004050F0800022F82300002010BCB9
:103AB000704710B402004878002824D0087832F803
:103AC000200040060CD5087832F8200048F68F73A5
:103AD000184040F4004050F0C0000B7822F823005A
:103AE0000B7832F8233048F6BF742340180090F06A
:103AF000100090F020000B7840F4004050F080005F
:103B000022F8230023E0087832F8200040040CD586
:103B1000087832F8200048F68F73184040F440408F
:103B200050F080000B7822F823000B7832F8233015
:103B30004BF68F742340180090F4805090F400509E
:103B40000B7840F4004050F0800022F82300002061
:103B500010BC70470200C9B2002902D18020A2F82F
:103B60004C00002070470100002070470100002039
:103B7000704701000020B1F8442010007047020097
:103B800000207047F0B59BB25C1C64100025002635
:103B900000275FF0000C92B210EB420E1EF5806E13
:103BA000F4462500002D11D091F800E07646491C1E
:103BB00091F800E056EA0E2E7746ACF800701CF142
:103BC000020C1CF1020C491C6D1EEBE7F0BDF0B4B9
:103BD0009BB25C1C64100025002692B210EB4207D9
:103BE00017F580673E002500002D06D037680F804E
:103BF000361D491C491C6D1EF6E7F0BC70470102DA
:103C0000103A07D330B4B1E83810103AA0E83810B1
:103C1000F9D230BC530724BFB1E80810A0E808105F
:103C200044BF51F8043B40F8043BD20724BF31F8AD
:103C3000022B20F8022B44BF0B7803707047083A20
:103C400007D3B1E80810083A40F8043B40F804CB29
:103C5000F7D25307E4E7000080B51D48006850F034
:103C600010001B4908600320FEF74EFA002000F008
:103C700004F800F051FA002002BD10B504004FF422
:103C80007A7014490978B0FBF1F013490968B1FB67
:103C9000F0F0FEF759FA002801D001200CE0102CBA
:103CA00009D2002221005FF0FF30FEF733FA0B4803
:103CB0000460002000E0012010BD094800680549AB
:103CC0000978081806490860704705480068704779
:103CD00000200240E8000020E0000020DC0000207E
:103CE000BC0A002080B5002207490848FEF742FAC6
:103CF00007490648FEF75AFA06490448FDF7A8FBAB
:103D00000248FEF760FA01BD840000204C05002047
:103D100000000020B4000020002201F02FB80000B5
:103D200010B50400002C01D1012014E094F83D00EE
:103D3000002805D1002084F83C00200000F018FA8B
:103D4000022084F83D00211D206800F085F8012044
:103D500084F83D00002010BD70B504000D00160071
:103D600094F83C00012801D1022074E0012084F87D
:103D70003C00022084F83D003000002806D00428D2
:103D80001BD0082831D00C2846D05DE029002068DF
:103D900000F0AAF82068806950F008002168886166
:103DA0002068806930F0040021688861206880699B
:103DB000296908432168886146E02900206800F0ED
:103DC000CCF82068806950F4006021688861206820
:103DD000806930F480602168886120688069296981
:103DE00050EA0120216888612EE02900206800F057
:103DF000F2F82068C06950F008002168C8612068A6
:103E0000C06930F004002168C8612068C069296970
:103E100008432168C86117E02900206800F018F9FC
:103E20002068C06950F400602168C8612068C069DA
:103E300030F480602168C8612068C069296950EA4F
:103E400001202168C861FFE7012084F83D000020BF
:103E500084F83C00002070BD002203681A00DFF8DF
:103E60004832984212D0DFF8443298420ED0B0F176
:103E7000804F0BD0DFF83832984207D0DFF8343269
:103E8000984203D0DFF83032984203D132F070020A
:103E90004B681A43844B98420ED0844B98420BD007
:103EA000B0F1804F08D0824B984205D0814B9842A8
:103EB00002D0814B984203D132F44072CB681A434E
:103EC00032F080024B691A4302608B68C3620B6850
:103ED0008362754B984202D0744B984201D10B69B2
:103EE000036301234361704730B4002300240022A0
:103EF000056A6D086D000562056A2C0045682A0098
:103F000085692B0033F070039B089B000D682B43E1
:103F100034F002048D682C43634DA84202D0634DF7
:103F2000A84205D134F00804CD682C4334F00404D1
:103F30005D4DA84202D05D4DA84207D132F4807297
:103F400032F400724D692A438D692A4342608361CD
:103F50004D684563046230BC704730B400230024D0
:103F60000022056A35F010050562056A2C004568D7
:103F70002A0085692B0033F4E04333F440730D6865
:103F800053EA052334F020048D6854EA0514464DA5
:103F9000A84202D0454DA84206D134F08004CD6835
:103FA00054EA051434F040043F4DA84202D03F4D7E
:103FB000A84209D132F4806232F400624D6952EABB
:103FC00085028D6952EA8502426083614D6885638E
:103FD000046230BC704730B4002300240022056A1C
:103FE00035F480750562056A2C0045682A00C569AC
:103FF0002B0033F070039B089B000D682B4334F4B7
:1040000000748D6854EA0524274DA84202D0274D3C
:10401000A84206D134F40064CD6854EA052434F48F
:104020008064214DA84202D0204DA84209D132F42B
:10403000805232F400524D6952EA05128D6952EAFB
:1040400005124260C3614D68C563046230BC7047AD
:1040500030B4002200230024056A35F4805505623F
:10406000056A2B0045682C00C5692A0032F4E0423D
:1040700032F440720D6852EA052233F400538D6821
:1040800053EA0533084DA84202D0084DA84204D196
:1040900034F480444D6954EA85144460C2614D682B
:1040A0000564036230BC7047002C014000340140BD
:1040B0000004004000080040000C0040020092F89C
:1040C0003C00012801D1022024E0012082F83C00BC
:1040D000022082F83D001068406830F070001368DC
:1040E0005860106840680B6818431368586010687F
:1040F000806830F0800013689860106880684B68B2
:10410000184313689860012082F83D00002082F86F
:104110003C0000207047000081B0DFF8100100680B
:1041200050F00100DFF804110860DFF800010068BA
:1041300010F0010000900098DFF8F410096851F0C9
:104140008051DFF8EC201160DFF8E410096811F00D
:10415000805100910099DFF8DC301B681A0032F0C2
:10416000E06252F00072DFF8CC301A6001B07047A4
:1041700081B00168314A91420BD12D49096851F053
:1041800004012B4A11602A49096811F004010091C9
:10419000009901B0704730B585B0040001A8102126
:1041A000FFF7BAFD20682649884221D11F480068E0
:1041B00050F008001D4908601C48006810F0080015
:1041C0000090009D30200190022002900220049077
:1041D00001A9194800F038FC16490968080030F4B4
:1041E000406050F0E06050F40060124908601AE04E
:1041F00020681249884216D10C48006850F0080027
:104200000A4908600948006810F008000090009D05
:104210004FF440700190022002900220049001A906
:10422000054800F011FC05B030BD00001810024038
:104230001C10024004000140000C01400008004036
:104240000004004070B582B0040000252078C0074B
:1042500040F18480DFF89406006810F00C00042818
:104260000BD0DFF88806006810F00C0008280ED18B
:10427000DFF878060068C00309D5DFF86C0600682F
:1042800080036BD56068002868D1012004E2606873
:10429000B0F5803F08D1DFF85006006850F4803058
:1042A000DFF84416086038E06068002810D1DFF8B5
:1042B0003806006830F48030DFF82C160860DFF82C
:1042C0002806006830F48020DFF81C16086024E01F
:1042D0006068B0F5A02F10D1DFF80C06006850F42C
:1042E0008020DFF804160860DFF8FC05006850F451
:1042F0008030DFF8F41508600FE0DFF8EC050068A7
:1043000030F48030DFF8E0150860DFF8DC05006885
:1043100030F48020DFF8D0150860606800280ED0E7
:10432000FFF7D3FC0500DFF8C0050068800315D453
:10433000FFF7CBFC401B6528F5D30320ACE1FFF76A
:10434000C4FC0500DFF8A0050068800306D5FFF770
:10435000BCFC401B6528F5D303209DE12078800735
:104360005CD5DFF88805006810F00C0F0BD0DFF883
:104370007C05006810F00C0008281AD1DFF86C05E5
:104380000068C00315D4DFF860050068800704D515
:104390002069012801D001207EE1DFF84C0500688A
:1043A00030F0F800616950EAC100DFF83C150860A0
:1043B00034E0206900281ED0DFF8400501210160AB
:1043C000FFF783FC0500DFF820050068800706D4AE
:1043D000FFF77BFC401B0328F5D303205CE1DFF8EB
:1043E0000805006830F0F800616950EAC100DFF8A4
:1043F000F814086012E0DFF8040500210160FFF7FF
:1044000064FC0500DFF8E0040068800706D5FFF7CC
:104410005CFC401B0328F5D303203DE12078000716
:104420002CD5A069002816D0DFF8D4040121016042
:10443000FFF74BFC0500DFF8C0040068800706D4D6
:10444000FFF743FC401B0328F5D3032024E10120A0
:1044500000F037FA12E0DFF8A80400210160FFF74E
:1044600034FC0500DFF890040068800706D5FFF7EC
:104470002CFC401B0328F5D303200DE120784007D6
:1044800040F1A7800026DFF87C040068C00010D44B
:10449000DFF87004006850F08050DFF8681408609E
:1044A000DFF86004006810F080500090009801214F
:1044B0000E00DFF854040068C00516D4DFF8480485
:1044C000006850F48070DFF840140860FFF7FDFBCF
:1044D0000500DFF834040068C00506D4FFF7F5FBDB
:1044E000401B6528F5D30320D6E0E068012808D1F9
:1044F000DFF81804006850F00100DFF810140860BD
:1045000037E0E068002810D1DFF8000400684008B8
:104510004000DFF8F8130860DFF8F003006830F0BF
:104520000400DFF8E813086023E0E068052810D1F4
:10453000DFF8D803006850F00400DFF8D0130860FB
:10454000DFF8C803006850F00100DFF8C01308600E
:104550000FE0DFF8B803006840084000DFF8AC1354
:104560000860DFF8A803006830F00400DFF89C134F
:104570000860E068002810D0FFF7A7FB0500DFF80F
:104580008C030068800719D4FFF79FFB401B41F2A2
:1045900089318842F3D303207EE0FFF796FB0500C4
:1045A000DFF868030068800708D5FFF78EFB401B23
:1045B00041F289318842F3D303206DE0F6B2012E37
:1045C00007D1DFF84003006830F08050DFF8341383
:1045D0000860E06900285ED0DFF81003006810F082
:1045E0000C00082855D0E06902283FD1DFF82003ED
:1045F00000210160FFF769FB0500DFF8EC020068AD
:10460000800106D5FFF761FB401B0328F5D303208B
:1046100042E0206AB0F5803F09D1DFF8D00200689F
:1046200030F40030A1680843DFF8C0120860DFF8FA
:10463000BC02006830F47410216A0843616A0843C0
:10464000DFF8A8120860DFF8C80201210160FFF757
:104650003CFB0500DFF89002006880011BD4FFF7E7
:1046600034FB401B0328F5D3032015E0DFF8A0023C
:1046700000210160FFF729FB0500DFF86C020068EC
:10468000800108D5FFF721FB401B0328F5D3032049
:1046900002E0012000E0002076BD70B504000D00AE
:1046A0000026DFF87002006810F00700A84211D25F
:1046B000DFF860020068C008C0002843DFF8541229
:1046C0000860DFF85002006810F00700A84201D02F
:1046D0000120B9E0207880071FD52078400707D552
:1046E000DFF80802006850F4E060DFF800120860AC
:1046F0002078000707D5DFF8F401006850F4605017
:10470000DFF8E8110860DFF8E401006830F0F0003D
:10471000A1680843DFF8D41108602078C00758D595
:104720006068012806D1DFF8C0010068800312D458
:10473000012089E06068022806D1DFF8AC0100683A
:10474000800108D401207FE0DFF89C010068800729
:1047500001D4012078E0DFF894010068800880002F
:104760006168084361490860FFF7AFFA06006068B6
:1047700001280ED15D48006810F00C00042828D0F4
:10478000FFF7A3FA801B41F289318842F2D303205C
:104790005AE0606802280ED15448006810F00C00FE
:1047A000082816D0FFF791FA801B41F28931884220
:1047B000F2D3032048E04D48006810F00C0F08D0F9
:1047C000FFF783FA801B41F289318842F3D303203B
:1047D0003AE05048006810F0070085420ED24D487C
:1047E0000068C008C00028434A490860494800687A
:1047F00010F00700A84201D0012025E020784007F2
:1048000007D53A48006830F4E060E168084337496A
:1048100008602078000708D53448006830F46050FC
:10482000216950EAC1003149086000F00EF82F49B3
:104830000968C1F30311384A895CC8402C490860F3
:104840000020FFF71AFA002070BD70B585B001A8EE
:1048500032491022FFF7D4F931480088ADF8000042
:1048600000210022002300240020204D2D68290073
:1048700011F00C05042D02D0082D03D01DE01D4DB4
:1048800028001CE0C1F3834501AEAD5D2C00CD03D3
:104890000DD5164D2D68C5F3404500AEAD5D2A001F
:1048A000144D05FB04F5B5FBF2F52B0003E01D4D9F
:1048B00005FB04F52B00180001E00E4D280005B0A3
:1048C00070BD81B00A490968C9084FF47A72B1FB1A
:1048D000F2F101FB00F1009100BF00994A1E009225
:1048E0000029F9D101B070470010024004100240C5
:1048F000E000002000127A00241002400000424232
:10490000800442421C10024000700040201002400F
:104910006000424200200240E84F0008D84F0008E3
:10492000FE3B000800093D00F8B504000025002604
:104930002078C00766D500273E480068C0000DD427
:104940003C48006850F080503A4908603948006897
:1049500010F080500090009801210F003648006848
:10496000C00513D43448006850F4807032490860A0
:10497000FFF7ABF9050030480068C00506D4FFF723
:10498000A4F9401B6528F6D3032052E02B480068A9
:1049900010F440700600002E23D0606810F44070C0
:1049A00086421ED02548006830F440700600244836
:1049B0000121016022480021016020480660F007C3
:1049C0000FD5FFF782F905001C480068800708D45E
:1049D000FFF77BF9401B41F289318842F4D3032071
:1049E00027E01648006830F44070616808431349B6
:1049F0000860FFB2012F05D10E48006830F08050EA
:104A00000C4908602078800707D50E48006830F40C
:104A10004040A16808430B4908602078C00607D5CC
:104A20000848006830F4800061690843054908605F
:104A30000020F2BD1C100240007000402010024017
:104A400040044242041002402DE9F84300230024B0
:104A5000002500265FF0000E5FF0000C6246102A71
:104A600080F05B815FF0010C1CFA02FC6346D1F818
:104A700000C013EA0C0C64469C4240F04C81D1F813
:104A800004C0BCF1000F3DD0BCF1010F24D0BCF13B
:104A9000020F2BD0BCF1030F4CD0BCF1110F1FD073
:104AA000BCF1120F28D0DFF88C82C4452AD0DFF881
:104AB0008882C44526D0DFF88482C44522D0DFF83E
:104AC0008082C4451ED0DFF87C82C4451AD0DFF84E
:104AD0007882C44516D031E0D1F80CC066462DE08E
:104AE000D1F80CC01CF1040C664627E0D1F80CC0CC
:104AF0001CF1080C664621E0D1F80CC01CF10C0C2E
:104B000066461BE0D1F808C0BCF1000F03D15FF08E
:104B1000040C66460DE0D1F808C0BCF1010F04D1C9
:104B20005FF0080C6646036103E05FF0080C664620
:104B3000436103E05FF0000C6646FFE7FF2C01D8FD
:104B4000070000E0071DFF2C02D85FEA820E03E099
:104B5000B2F1080C5FEA8C0ED7F800C05FF00F08C6
:104B600018FA0EF83CEA080C16FA0EF858EA0C0C83
:104B7000C7F800C0D1F804C05FEACC0C40F1CB808C
:104B8000DFF8C8C1DCF800C05CF0010CDFF8BC81C4
:104B9000C8F800C0DFF8B4C1DCF800C01CF00108A0
:104BA000CDF80080DDF800C05FEA9208DFF8A09140
:104BB00059F8288045465FF00F0812F003095FFAA4
:104BC00089F95FEA890918FA09F835EA0805DFF872
:104BD0008481404502D15FF0000C24E0DFF878C109
:104BE000604502D15FF0010C1DE0DFF870C1604547
:104BF00002D15FF0020C16E0DFF864C1604502D11B
:104C00005FF0030C0FE0DFF85CC1604502D15FF09C
:104C1000040C08E0DFF850C1604502D15FF0050CDC
:104C200001E05FF0060C12F003085FFA88F85FEA13
:104C300088081CFA08FC5CEA05055FEA920CDFF8BC
:104C4000108148F82C50D1F804C05FEACC3C0AD55A
:104C5000DFF818C1DCF800C054EA0C0CDFF80C8156
:104C6000C8F800C009E0DFF804C1DCF800C03CEA85
:104C7000040CDFF8F880C8F800C0D1F804C05FEA7F
:104C80008C3C0AD5DFF8E8C0DCF800C054EA0C0C14
:104C9000DFF8DC80C8F800C009E0DFF8D4C0DCF839
:104CA00000C03CEA040CDFF8C880C8F800C0D1F8A6
:104CB00004C05FEACC2C0AD5DFF8B8C0DCF800C02D
:104CC00054EA0C0CDFF8AC80C8F800C009E0DFF84B
:104CD000A4C0DCF800C03CEA040CDFF89880C8F8F7
:104CE00000C0D1F804C05FEA8C2C0AD5DFF888C078
:104CF000DCF800C054EA0C0CDFF87C80C8F800C077
:104D000009E0DFF874C0DCF800C03CEA040CDFF80E
:104D10006880C8F800C0521CA1E6BDE8F183D2B299
:104D2000002A02D089B2016102E089B20B0403615A
:104D30007047000000001110000012100000211048
:104D40000000221000003110000032101810024044
:104D50000800014000080140000C01400010014023
:104D60000014014000180140001C014000040140F3
:104D700004040140080401400C04014000B500BFD8
:104D8000130096469446103928BFA0E80C50FAD874
:104D90005FEA417C28BF0CC048BF40F8042BC9071C
:104DA00028BF20F8022B48BF00F8012B00BD0000EF
:104DB0000200122008802E4870470200042008805C
:104DC0002C48704738B504000D00E4B2002C05D122
:104DD0002A0029492948FDF7EBF804E02A00264972
:104DE0002648FDF7E5F8244832BD38B504000D002B
:104DF0002A0021492248FDF7DBF81F4832BD38B5AB
:104E000004000D00E4B2002C05D12A001A491D4807
:104E1000FDF7CEF804E02A0017491A48FDF7C8F854
:104E2000154832BD38B504000D00E4B2002C05D1A0
:104E30002A0011491448FDF7BBF804E02A000E4986
:104E40001148FDF7B5F80C4832BD38B504000D0027
:104E5000E4B2002C05D12A0007490C48FDF7A8F858
:104E600004E02A0004490948FDF7A2F8024832BDCF
:104E7000A0000020E4000020700700201850000867
:104E800038500008F84F0008C44F00086C4F000865
:104E90001348006850F0010011490860114800688B
:104EA000114908400F4908600D4800680F49084043
:104EB0000B4908600A48006830F4802008490860FF
:104EC0000848006830F4FE000649086008485FF4AE
:104ED0001F01016007485FF000610160704700003A
:104EE00000100240041002400000FFF8FFFFF6FE31
:104EF0000810024008ED00E07047FEE7FEE7FEE71D
:104F0000FEE770477047704780B5FEF7D6FE01BDDB
:104F100080B50248FDF759FB01BD0000EC00002000
:104F200010B5074979441831064C7C44163404E026
:104F30000A68081D511888470146A142F8D110BDE2
:104F400008000000280000007FDEFFFFDC090000F1
:104F5000EC00002000000000B3D0FFFFEC000000D8
:104F6000C8010000000000200000000043757374B9
:104F70006F6D2048494420496E74657266616365AF
:104F80000000000000F009F8002801D0FFF7C8FF7A
:104F90000020FDF729FF00F002F80120704700F023
:104FA00001B800000746384600F002F8FBE70000B1
:104FB00080B5C046C046024A11001820ABBEFBE7D0
:104FC00026000200437573746F6D204849442043E6
:104FD0006F6E666967000000020304050607080992
:104FE0000A0B0C0D0E0F1010000000000000000056
:104FF0000102030406070809303030303030303009
:10500000303031410000000001488047014800472E
:10501000914E0008255000084D6963724F70746905
:105020006B000000C046C046C046C046FFF7AAFF5E
:105030000000000000000000555A464D000000002E
:10504000FFF7FEBFFFF7FEBFFFF7FEBFFFF7FEBF94
:10505000FFF7FEBFFFF7FEBFFFF7FEBFFFF7FEBF84
:10506000FFF7FEBFFFF7FEBFFFF7FEBFFFF7FEBF74
:10507000FFF7FEBFFFF7FEBFFFF7FEBFFFF7FEBF64
:10508000FFF7FEBFFFF7FEBFFFF7FEBFFFF7FEBF54
:10509000FFF7FEBFFFF7FEBFFFF7FEBFFFF7FEBF44
:1050A000FFF7FEBFFFF7FEBFFFF7FEBFFFF7FEBF34
:1050B000FFF7FEBFFFF7FEBFFFF7FEBFFFF7FEBF24
:1050C000FFF7FEBFFFF7FEBFFFF7FEBFFFF7FEBF14
:1050D000FFF7FEBFFFF7FEBFFFF7FEBFFFF7FEBF04
:1050E000FFF7FEBFFFF7FEBFFFF7FEBFFFF7FEBFF4
:1050F000FFF7FEBFFFF7FEBFFFF7FEBFFFF7FEBFE4
:10510000FFF7FEBFFFF7FEBFFFF7FEBFFFF7FEBFD3
:10511000FFF7FEBFFFF7FEBFFFF7FEBFFFF7FEBFC3
:10512000FFF7FEBFFFF7FEBF0D1200086B1200086D
:10513000A31200080000000019140008E31300087F
:10514000F313000800000000000000000000000051
:10515000D9130008D9130008D91300083B1400081C
:105160000000000009022900010100C0320904000A
:10517000000203000000092111010001221C0007A8
:1051800005810340002007050103400001000000E5
:105190000600FF0901A101850275089540090191EA
:1051A0008285010904750895408182C0B14D0008CF
:1051B000BB4D0008EB4D0008C54D0008FF4D000831
:1051C000254E00084B4E000812010002000000406E
:1051D0008304505700020102030100006800002010
:1051E000B5110008B9110008BD110008092111010D
:1051F0000001221C000000000A060002000000401E
:10520000010000001000000000A24A040403090489
:045210000100000099
:04000005080050257A
:00000001FF
